{
  "_format": "hh-sol-artifact-1",
  "contractName": "SportChainCertificate",
  "sourceName": "contracts/SportChainCertificate.sol",
  "abi": [
    {
      "inputs": [],
      "stateMutability": "nonpayable",
      "type": "constructor"
    },
    {
      "inputs": [],
      "name": "AccessControlBadConfirmation",
      "type": "error"
    },
    {
      "inputs": [
        {
          "internalType": "address",
          "name": "account",
          "type": "address"
        },
        {
          "internalType": "bytes32",
          "name": "neededRole",
          "type": "bytes32"
        }
      ],
      "name": "AccessControlUnauthorizedAccount",
      "type": "error"
    },
    {
      "inputs": [
        {
          "internalType": "address",
          "name": "sender",
          "type": "address"
        },
        {
          "internalType": "uint256",
          "name": "tokenId",
          "type": "uint256"
        },
        {
          "internalType": "address",
          "name": "owner",
          "type": "address"
        }
      ],
      "name": "ERC721IncorrectOwner",
      "type": "error"
    },
    {
      "inputs": [
        {
          "internalType": "address",
          "name": "operator",
          "type": "address"
        },
        {
          "internalType": "uint256",
          "name": "tokenId",
          "type": "uint256"
        }
      ],
      "name": "ERC721InsufficientApproval",
      "type": "error"
    },
    {
      "inputs": [
        {
          "internalType": "address",
          "name": "approver",
          "type": "address"
        }
      ],
      "name": "ERC721InvalidApprover",
      "type": "error"
    },
    {
      "inputs": [
        {
          "internalType": "address",
          "name": "operator",
          "type": "address"
        }
      ],
      "name": "ERC721InvalidOperator",
      "type": "error"
    },
    {
      "inputs": [
        {
          "internalType": "address",
          "name": "owner",
          "type": "address"
        }
      ],
      "name": "ERC721InvalidOwner",
      "type": "error"
    },
    {
      "inputs": [
        {
          "internalType": "address",
          "name": "receiver",
          "type": "address"
        }
      ],
      "name": "ERC721InvalidReceiver",
      "type": "error"
    },
    {
      "inputs": [
        {
          "internalType": "address",
          "name": "sender",
          "type": "address"
        }
      ],
      "name": "ERC721InvalidSender",
      "type": "error"
    },
    {
      "inputs": [
        {
          "internalType": "uint256",
          "name": "tokenId",
          "type": "uint256"
        }
      ],
      "name": "ERC721NonexistentToken",
      "type": "error"
    },
    {
      "anonymous": false,
      "inputs": [
        {
          "indexed": true,
          "internalType": "address",
          "name": "owner",
          "type": "address"
        },
        {
          "indexed": true,
          "internalType": "address",
          "name": "approved",
          "type": "address"
        },
        {
          "indexed": true,
          "internalType": "uint256",
          "name": "tokenId",
          "type": "uint256"
        }
      ],
      "name": "Approval",
      "type": "event"
    },
    {
      "anonymous": false,
      "inputs": [
        {
          "indexed": true,
          "internalType": "address",
          "name": "owner",
          "type": "address"
        },
        {
          "indexed": true,
          "internalType": "address",
          "name": "operator",
          "type": "address"
        },
        {
          "indexed": false,
          "internalType": "bool",
          "name": "approved",
          "type": "bool"
        }
      ],
      "name": "ApprovalForAll",
      "type": "event"
    },
    {
      "anonymous": false,
      "inputs": [
        {
          "indexed": false,
          "internalType": "uint256",
          "name": "_fromTokenId",
          "type": "uint256"
        },
        {
          "indexed": false,
          "internalType": "uint256",
          "name": "_toTokenId",
          "type": "uint256"
        }
      ],
      "name": "BatchMetadataUpdate",
      "type": "event"
    },
    {
      "anonymous": false,
      "inputs": [
        {
          "indexed": false,
          "internalType": "uint256",
          "name": "_tokenId",
          "type": "uint256"
        }
      ],
      "name": "MetadataUpdate",
      "type": "event"
    },
    {
      "anonymous": false,
      "inputs": [
        {
          "indexed": true,
          "internalType": "bytes32",
          "name": "role",
          "type": "bytes32"
        },
        {
          "indexed": true,
          "internalType": "bytes32",
          "name": "previousAdminRole",
          "type": "bytes32"
        },
        {
          "indexed": true,
          "internalType": "bytes32",
          "name": "newAdminRole",
          "type": "bytes32"
        }
      ],
      "name": "RoleAdminChanged",
      "type": "event"
    },
    {
      "anonymous": false,
      "inputs": [
        {
          "indexed": true,
          "internalType": "bytes32",
          "name": "role",
          "type": "bytes32"
        },
        {
          "indexed": true,
          "internalType": "address",
          "name": "account",
          "type": "address"
        },
        {
          "indexed": true,
          "internalType": "address",
          "name": "sender",
          "type": "address"
        }
      ],
      "name": "RoleGranted",
      "type": "event"
    },
    {
      "anonymous": false,
      "inputs": [
        {
          "indexed": true,
          "internalType": "bytes32",
          "name": "role",
          "type": "bytes32"
        },
        {
          "indexed": true,
          "internalType": "address",
          "name": "account",
          "type": "address"
        },
        {
          "indexed": true,
          "internalType": "address",
          "name": "sender",
          "type": "address"
        }
      ],
      "name": "RoleRevoked",
      "type": "event"
    },
    {
      "anonymous": false,
      "inputs": [
        {
          "indexed": true,
          "internalType": "address",
          "name": "from",
          "type": "address"
        },
        {
          "indexed": true,
          "internalType": "address",
          "name": "to",
          "type": "address"
        },
        {
          "indexed": true,
          "internalType": "uint256",
          "name": "tokenId",
          "type": "uint256"
        }
      ],
      "name": "Transfer",
      "type": "event"
    },
    {
      "inputs": [],
      "name": "DEFAULT_ADMIN_ROLE",
      "outputs": [
        {
          "internalType": "bytes32",
          "name": "",
          "type": "bytes32"
        }
      ],
      "stateMutability": "view",
      "type": "function"
    },
    {
      "inputs": [],
      "name": "MINTER_ROLE",
      "outputs": [
        {
          "internalType": "bytes32",
          "name": "",
          "type": "bytes32"
        }
      ],
      "stateMutability": "view",
      "type": "function"
    },
    {
      "inputs": [
        {
          "internalType": "address",
          "name": "to",
          "type": "address"
        },
        {
          "internalType": "uint256",
          "name": "tokenId",
          "type": "uint256"
        }
      ],
      "name": "approve",
      "outputs": [],
      "stateMutability": "nonpayable",
      "type": "function"
    },
    {
      "inputs": [
        {
          "internalType": "address",
          "name": "owner",
          "type": "address"
        }
      ],
      "name": "balanceOf",
      "outputs": [
        {
          "internalType": "uint256",
          "name": "",
          "type": "uint256"
        }
      ],
      "stateMutability": "view",
      "type": "function"
    },
    {
      "inputs": [
        {
          "internalType": "uint256",
          "name": "tokenId",
          "type": "uint256"
        }
      ],
      "name": "getApproved",
      "outputs": [
        {
          "internalType": "address",
          "name": "",
          "type": "address"
        }
      ],
      "stateMutability": "view",
      "type": "function"
    },
    {
      "inputs": [
        {
          "internalType": "bytes32",
          "name": "role",
          "type": "bytes32"
        }
      ],
      "name": "getRoleAdmin",
      "outputs": [
        {
          "internalType": "bytes32",
          "name": "",
          "type": "bytes32"
        }
      ],
      "stateMutability": "view",
      "type": "function"
    },
    {
      "inputs": [
        {
          "internalType": "bytes32",
          "name": "role",
          "type": "bytes32"
        },
        {
          "internalType": "address",
          "name": "account",
          "type": "address"
        }
      ],
      "name": "grantRole",
      "outputs": [],
      "stateMutability": "nonpayable",
      "type": "function"
    },
    {
      "inputs": [
        {
          "internalType": "bytes32",
          "name": "role",
          "type": "bytes32"
        },
        {
          "internalType": "address",
          "name": "account",
          "type": "address"
        }
      ],
      "name": "hasRole",
      "outputs": [
        {
          "internalType": "bool",
          "name": "",
          "type": "bool"
        }
      ],
      "stateMutability": "view",
      "type": "function"
    },
    {
      "inputs": [
        {
          "internalType": "address",
          "name": "owner",
          "type": "address"
        },
        {
          "internalType": "address",
          "name": "operator",
          "type": "address"
        }
      ],
      "name": "isApprovedForAll",
      "outputs": [
        {
          "internalType": "bool",
          "name": "",
          "type": "bool"
        }
      ],
      "stateMutability": "view",
      "type": "function"
    },
    {
      "inputs": [
        {
          "internalType": "address",
          "name": "to",
          "type": "address"
        },
        {
          "internalType": "string",
          "name": "tokenURI",
          "type": "string"
        }
      ],
      "name": "mintCertificate",
      "outputs": [
        {
          "internalType": "uint256",
          "name": "",
          "type": "uint256"
        }
      ],
      "stateMutability": "nonpayable",
      "type": "function"
    },
    {
      "inputs": [],
      "name": "name",
      "outputs": [
        {
          "internalType": "string",
          "name": "",
          "type": "string"
        }
      ],
      "stateMutability": "view",
      "type": "function"
    },
    {
      "inputs": [
        {
          "internalType": "uint256",
          "name": "tokenId",
          "type": "uint256"
        }
      ],
      "name": "ownerOf",
      "outputs": [
        {
          "internalType": "address",
          "name": "",
          "type": "address"
        }
      ],
      "stateMutability": "view",
      "type": "function"
    },
    {
      "inputs": [
        {
          "internalType": "bytes32",
          "name": "role",
          "type": "bytes32"
        },
        {
          "internalType": "address",
          "name": "callerConfirmation",
          "type": "address"
        }
      ],
      "name": "renounceRole",
      "outputs": [],
      "stateMutability": "nonpayable",
      "type": "function"
    },
    {
      "inputs": [
        {
          "internalType": "bytes32",
          "name": "role",
          "type": "bytes32"
        },
        {
          "internalType": "address",
          "name": "account",
          "type": "address"
        }
      ],
      "name": "revokeRole",
      "outputs": [],
      "stateMutability": "nonpayable",
      "type": "function"
    },
    {
      "inputs": [
        {
          "internalType": "address",
          "name": "from",
          "type": "address"
        },
        {
          "internalType": "address",
          "name": "to",
          "type": "address"
        },
        {
          "internalType": "uint256",
          "name": "tokenId",
          "type": "uint256"
        }
      ],
      "name": "safeTransferFrom",
      "outputs": [],
      "stateMutability": "nonpayable",
      "type": "function"
    },
    {
      "inputs": [
        {
          "internalType": "address",
          "name": "from",
          "type": "address"
        },
        {
          "internalType": "address",
          "name": "to",
          "type": "address"
        },
        {
          "internalType": "uint256",
          "name": "tokenId",
          "type": "uint256"
        },
        {
          "internalType": "bytes",
          "name": "data",
          "type": "bytes"
        }
      ],
      "name": "safeTransferFrom",
      "outputs": [],
      "stateMutability": "nonpayable",
      "type": "function"
    },
    {
      "inputs": [
        {
          "internalType": "address",
          "name": "operator",
          "type": "address"
        },
        {
          "internalType": "bool",
          "name": "approved",
          "type": "bool"
        }
      ],
      "name": "setApprovalForAll",
      "outputs": [],
      "stateMutability": "nonpayable",
      "type": "function"
    },
    {
      "inputs": [
        {
          "internalType": "bytes4",
          "name": "interfaceId",
          "type": "bytes4"
        }
      ],
      "name": "supportsInterface",
      "outputs": [
        {
          "internalType": "bool",
          "name": "",
          "type": "bool"
        }
      ],
      "stateMutability": "view",
      "type": "function"
    },
    {
      "inputs": [],
      "name": "symbol",
      "outputs": [
        {
          "internalType": "string",
          "name": "",
          "type": "string"
        }
      ],
      "stateMutability": "view",
      "type": "function"
    },
    {
      "inputs": [
        {
          "internalType": "uint256",
          "name": "tokenId",
          "type": "uint256"
        }
      ],
      "name": "tokenURI",
      "outputs": [
        {
          "internalType": "string",
          "name": "",
          "type": "string"
        }
      ],
      "stateMutability": "view",
      "type": "function"
    },
    {
      "inputs": [
        {
          "internalType": "address",
          "name": "from",
          "type": "address"
        },
        {
          "internalType": "address",
          "name": "to",
          "type": "address"
        },
        {
          "internalType": "uint256",
          "name": "tokenId",
          "type": "uint256"
        }
      ],
      "name": "transferFrom",
      "outputs": [],
      "stateMutability": "nonpayable",
      "type": "function"
    }
  ],
  "bytecode": "0x60806040523480156200001157600080fd5b506040518060400160405280601681526020017f53706f7274436861696e204365727469666963617465000000000000000000008152506040518060400160405280600381526020017f534343000000000000000000000000000000000000000000000000000000000081525081600090816200008f9190620004e4565b508060019081620000a19190620004e4565b505050620000b96000801b33620000f360201b60201c565b50620000ec7f9f2df0fed2c77648de5860a4cc508cd0818c85b8b8a1ab4ceeef8d981c8956a633620000f360201b60201c565b50620005cb565b6000620001078383620001f760201b60201c565b620001ec5760016007600085815260200190815260200160002060000160008473ffffffffffffffffffffffffffffffffffffffff1673ffffffffffffffffffffffffffffffffffffffff16815260200190815260200160002060006101000a81548160ff021916908315150217905550620001886200026260201b60201c565b73ffffffffffffffffffffffffffffffffffffffff168273ffffffffffffffffffffffffffffffffffffffff16847f2f8788117e7eff1d82e926ec794901d17c78024a50270940304540a733656f0d60405160405180910390a460019050620001f1565b600090505b92915050565b60006007600084815260200190815260200160002060000160008373ffffffffffffffffffffffffffffffffffffffff1673ffffffffffffffffffffffffffffffffffffffff16815260200190815260200160002060009054906101000a900460ff16905092915050565b600033905090565b600081519050919050565b7f4e487b7100000000000000000000000000000000000000000000000000000000600052604160045260246000fd5b7f4e487b7100000000000000000000000000000000000000000000000000000000600052602260045260246000fd5b60006002820490506001821680620002ec57607f821691505b602082108103620003025762000301620002a4565b5b50919050565b60008190508160005260206000209050919050565b60006020601f8301049050919050565b600082821b905092915050565b6000600883026200036c7fffffffffffffffffffffffffffffffffffffffffffffffffffffffffffffffff826200032d565b6200037886836200032d565b95508019841693508086168417925050509392505050565b6000819050919050565b6000819050919050565b6000620003c5620003bf620003b98462000390565b6200039a565b62000390565b9050919050565b6000819050919050565b620003e183620003a4565b620003f9620003f082620003cc565b8484546200033a565b825550505050565b600090565b6200041062000401565b6200041d818484620003d6565b505050565b5b8181101562000445576200043960008262000406565b60018101905062000423565b5050565b601f82111562000494576200045e8162000308565b62000469846200031d565b8101602085101562000479578190505b6200049162000488856200031d565b83018262000422565b50505b505050565b600082821c905092915050565b6000620004b96000198460080262000499565b1980831691505092915050565b6000620004d48383620004a6565b9150826002028217905092915050565b620004ef826200026a565b67ffffffffffffffff8111156200050b576200050a62000275565b5b620005178254620002d3565b6200052482828562000449565b600060209050601f8311600181146200055c576000841562000547578287015190505b620005538582620004c6565b865550620005c3565b601f1984166200056c8662000308565b60005b8281101562000596578489015182556001820191506020850194506020810190506200056f565b86831015620005b65784890151620005b2601f891682620004a6565b8355505b6001600288020188555050505b505050505050565b612aae80620005db6000396000f3fe608060405234801561001057600080fd5b50600436106101375760003560e01c80636352211e116100b8578063a22cb4651161007c578063a22cb46514610372578063b88d4fde1461038e578063c87b56dd146103aa578063d5391393146103da578063d547741f146103f8578063e985e9c51461041457610137565b80636352211e146102a657806370a08231146102d657806391d148541461030657806395d89b4114610336578063a217fddf1461035457610137565b806323b872dd116100ff57806323b872dd14610206578063248a9ca3146102225780632f2ff15d1461025257806336568abe1461026e57806342842e0e1461028a57610137565b806301ffc9a71461013c57806306fdde031461016c5780630712249f1461018a578063081812fc146101ba578063095ea7b3146101ea575b600080fd5b61015660048036038101906101519190611e10565b610444565b6040516101639190611e58565b60405180910390f35b610174610456565b6040516101819190611f03565b60405180910390f35b6101a4600480360381019061019f91906120b8565b6104e8565b6040516101b1919061212d565b60405180910390f35b6101d460048036038101906101cf9190612174565b610552565b6040516101e191906121b0565b60405180910390f35b61020460048036038101906101ff91906121cb565b61056e565b005b610220600480360381019061021b919061220b565b610584565b005b61023c60048036038101906102379190612294565b610686565b60405161024991906122d0565b60405180910390f35b61026c600480360381019061026791906122eb565b6106a6565b005b610288600480360381019061028391906122eb565b6106c8565b005b6102a4600480360381019061029f919061220b565b610743565b005b6102c060048036038101906102bb9190612174565b610763565b6040516102cd91906121b0565b60405180910390f35b6102f060048036038101906102eb919061232b565b610775565b6040516102fd919061212d565b60405180910390f35b610320600480360381019061031b91906122eb565b61082f565b60405161032d9190611e58565b60405180910390f35b61033e61089a565b60405161034b9190611f03565b60405180910390f35b61035c61092c565b60405161036991906122d0565b60405180910390f35b61038c60048036038101906103879190612384565b610933565b005b6103a860048036038101906103a39190612465565b610949565b005b6103c460048036038101906103bf9190612174565b61096e565b6040516103d19190611f03565b60405180910390f35b6103e2610a81565b6040516103ef91906122d0565b60405180910390f35b610412600480360381019061040d91906122eb565b610aa5565b005b61042e600480360381019061042991906124e8565b610ac7565b60405161043b9190611e58565b60405180910390f35b600061044f82610b5b565b9050919050565b60606000805461046590612557565b80601f016020809104026020016040519081016040528092919081815260200182805461049190612557565b80156104de5780601f106104b3576101008083540402835291602001916104de565b820191906000526020600020905b8154815290600101906020018083116104c157829003601f168201915b5050505050905090565b60007f9f2df0fed2c77648de5860a4cc508cd0818c85b8b8a1ab4ceeef8d981c8956a661051481610bd5565b60086000815480929190610527906125b7565b91905055506000600854905061053d8582610be9565b6105478185610c07565b809250505092915050565b600061055d82610c63565b5061056782610ceb565b9050919050565b610580828261057b610d28565b610d30565b5050565b600073ffffffffffffffffffffffffffffffffffffffff168273ffffffffffffffffffffffffffffffffffffffff16036105f65760006040517f64a0ae920000000000000000000000000000000000000000000000000000000081526004016105ed91906121b0565b60405180910390fd5b600061060a8383610605610d28565b610d42565b90508373ffffffffffffffffffffffffffffffffffffffff168173ffffffffffffffffffffffffffffffffffffffff1614610680578382826040517f64283d7b000000000000000000000000000000000000000000000000000000008152600401610677939291906125ff565b60405180910390fd5b50505050565b600060076000838152602001908152602001600020600101549050919050565b6106af82610686565b6106b881610bd5565b6106c28383610f5c565b50505050565b6106d0610d28565b73ffffffffffffffffffffffffffffffffffffffff168173ffffffffffffffffffffffffffffffffffffffff1614610734576040517f6697b23200000000000000000000000000000000000000000000000000000000815260040160405180910390fd5b61073e828261104e565b505050565b61075e83838360405180602001604052806000815250610949565b505050565b600061076e82610c63565b9050919050565b60008073ffffffffffffffffffffffffffffffffffffffff168273ffffffffffffffffffffffffffffffffffffffff16036107e85760006040517f89c62b640000000000000000000000000000000000000000000000000000000081526004016107df91906121b0565b60405180910390fd5b600360008373ffffffffffffffffffffffffffffffffffffffff1673ffffffffffffffffffffffffffffffffffffffff168152602001908152602001600020549050919050565b60006007600084815260200190815260200160002060000160008373ffffffffffffffffffffffffffffffffffffffff1673ffffffffffffffffffffffffffffffffffffffff16815260200190815260200160002060009054906101000a900460ff16905092915050565b6060600180546108a990612557565b80601f01602080910402602001604051908101604052809291908181526020018280546108d590612557565b80156109225780601f106108f757610100808354040283529160200191610922565b820191906000526020600020905b81548152906001019060200180831161090557829003601f168201915b5050505050905090565b6000801b81565b61094561093e610d28565b8383611141565b5050565b610954848484610584565b61096861095f610d28565b858585856112b0565b50505050565b606061097982610c63565b50600060066000848152602001908152602001600020805461099a90612557565b80601f01602080910402602001604051908101604052809291908181526020018280546109c690612557565b8015610a135780601f106109e857610100808354040283529160200191610a13565b820191906000526020600020905b8154815290600101906020018083116109f657829003601f168201915b505050505090506000610a24611461565b90506000815103610a39578192505050610a7c565b600082511115610a6e578082604051602001610a56929190612672565b60405160208183030381529060405292505050610a7c565b610a7784611478565b925050505b919050565b7f9f2df0fed2c77648de5860a4cc508cd0818c85b8b8a1ab4ceeef8d981c8956a681565b610aae82610686565b610ab781610bd5565b610ac1838361104e565b50505050565b6000600560008473ffffffffffffffffffffffffffffffffffffffff1673ffffffffffffffffffffffffffffffffffffffff16815260200190815260200160002060008373ffffffffffffffffffffffffffffffffffffffff1673ffffffffffffffffffffffffffffffffffffffff16815260200190815260200160002060009054906101000a900460ff16905092915050565b60007f7965db0b000000000000000000000000000000000000000000000000000000007bffffffffffffffffffffffffffffffffffffffffffffffffffffffff1916827bffffffffffffffffffffffffffffffffffffffffffffffffffffffff19161480610bce5750610bcd826114e1565b5b9050919050565b610be681610be1610d28565b611542565b50565b610c03828260405180602001604052806000815250611593565b5050565b80600660008481526020019081526020016000209081610c279190612842565b507ff8e1a15aba9398e019f0b49df1a4fde98ee17ae345cb5f6b5e2c27f5033e8ce782604051610c57919061212d565b60405180910390a15050565b600080610c6f836115b7565b9050600073ffffffffffffffffffffffffffffffffffffffff168173ffffffffffffffffffffffffffffffffffffffff1603610ce257826040517f7e273289000000000000000000000000000000000000000000000000000000008152600401610cd9919061212d565b60405180910390fd5b80915050919050565b60006004600083815260200190815260200160002060009054906101000a900473ffffffffffffffffffffffffffffffffffffffff169050919050565b600033905090565b610d3d83838360016115f4565b505050565b600080610d4e846115b7565b9050600073ffffffffffffffffffffffffffffffffffffffff168373ffffffffffffffffffffffffffffffffffffffff1614610d9057610d8f8184866117b9565b5b600073ffffffffffffffffffffffffffffffffffffffff168173ffffffffffffffffffffffffffffffffffffffff1614610e2157610dd26000856000806115f4565b6001600360008373ffffffffffffffffffffffffffffffffffffffff1673ffffffffffffffffffffffffffffffffffffffff168152602001908152602001600020600082825403925050819055505b600073ffffffffffffffffffffffffffffffffffffffff168573ffffffffffffffffffffffffffffffffffffffff1614610ea4576001600360008773ffffffffffffffffffffffffffffffffffffffff1673ffffffffffffffffffffffffffffffffffffffff168152602001908152602001600020600082825401925050819055505b846002600086815260200190815260200160002060006101000a81548173ffffffffffffffffffffffffffffffffffffffff021916908373ffffffffffffffffffffffffffffffffffffffff160217905550838573ffffffffffffffffffffffffffffffffffffffff168273ffffffffffffffffffffffffffffffffffffffff167fddf252ad1be2c89b69c2b068fc378daa952ba7f163c4a11628f55a4df523b3ef60405160405180910390a4809150509392505050565b6000610f68838361082f565b6110435760016007600085815260200190815260200160002060000160008473ffffffffffffffffffffffffffffffffffffffff1673ffffffffffffffffffffffffffffffffffffffff16815260200190815260200160002060006101000a81548160ff021916908315150217905550610fe0610d28565b73ffffffffffffffffffffffffffffffffffffffff168273ffffffffffffffffffffffffffffffffffffffff16847f2f8788117e7eff1d82e926ec794901d17c78024a50270940304540a733656f0d60405160405180910390a460019050611048565b600090505b92915050565b600061105a838361082f565b156111365760006007600085815260200190815260200160002060000160008473ffffffffffffffffffffffffffffffffffffffff1673ffffffffffffffffffffffffffffffffffffffff16815260200190815260200160002060006101000a81548160ff0219169083151502179055506110d3610d28565b73ffffffffffffffffffffffffffffffffffffffff168273ffffffffffffffffffffffffffffffffffffffff16847ff6391f5c32d9c69d2a47ea670b442974b53935d1edc7fd64eb21e047a839171b60405160405180910390a46001905061113b565b600090505b92915050565b600073ffffffffffffffffffffffffffffffffffffffff168273ffffffffffffffffffffffffffffffffffffffff16036111b257816040517f5b08ba180000000000000000000000000000000000000000000000000000000081526004016111a991906121b0565b60405180910390fd5b80600560008573ffffffffffffffffffffffffffffffffffffffff1673ffffffffffffffffffffffffffffffffffffffff16815260200190815260200160002060008473ffffffffffffffffffffffffffffffffffffffff1673ffffffffffffffffffffffffffffffffffffffff16815260200190815260200160002060006101000a81548160ff0219169083151502179055508173ffffffffffffffffffffffffffffffffffffffff168373ffffffffffffffffffffffffffffffffffffffff167f17307eab39ab6107e8899845ad3d59bd9653f200f220920489ca2b5937696c31836040516112a39190611e58565b60405180910390a3505050565b60008373ffffffffffffffffffffffffffffffffffffffff163b111561145a578273ffffffffffffffffffffffffffffffffffffffff1663150b7a02868685856040518563ffffffff1660e01b815260040161130f9493929190612969565b6020604051808303816000875af192505050801561134b57506040513d601f19601f8201168201806040525081019061134891906129ca565b60015b6113cf573d806000811461137b576040519150601f19603f3d011682016040523d82523d6000602084013e611380565b606091505b5060008151036113c757836040517f64a0ae920000000000000000000000000000000000000000000000000000000081526004016113be91906121b0565b60405180910390fd5b805160208201fd5b63150b7a0260e01b7bffffffffffffffffffffffffffffffffffffffffffffffffffffffff1916817bffffffffffffffffffffffffffffffffffffffffffffffffffffffff19161461145857836040517f64a0ae9200000000000000000000000000000000000000000000000000000000815260040161144f91906121b0565b60405180910390fd5b505b5050505050565b606060405180602001604052806000815250905090565b606061148382610c63565b50600061148e611461565b905060008151116114ae57604051806020016040528060008152506114d9565b806114b88461187d565b6040516020016114c9929190612672565b6040516020818303038152906040525b915050919050565b6000634906490660e01b7bffffffffffffffffffffffffffffffffffffffffffffffffffffffff1916827bffffffffffffffffffffffffffffffffffffffffffffffffffffffff1916148061153b575061153a8261194b565b5b9050919050565b61154c828261082f565b61158f5780826040517fe2517d3f0000000000000000000000000000000000000000000000000000000081526004016115869291906129f7565b60405180910390fd5b5050565b61159d8383611a2d565b6115b26115a8610d28565b60008585856112b0565b505050565b60006002600083815260200190815260200160002060009054906101000a900473ffffffffffffffffffffffffffffffffffffffff169050919050565b808061162d5750600073ffffffffffffffffffffffffffffffffffffffff168273ffffffffffffffffffffffffffffffffffffffff1614155b1561176157600061163d84610c63565b9050600073ffffffffffffffffffffffffffffffffffffffff168373ffffffffffffffffffffffffffffffffffffffff16141580156116a857508273ffffffffffffffffffffffffffffffffffffffff168173ffffffffffffffffffffffffffffffffffffffff1614155b80156116bb57506116b98184610ac7565b155b156116fd57826040517fa9fbf51f0000000000000000000000000000000000000000000000000000000081526004016116f491906121b0565b60405180910390fd5b811561175f57838573ffffffffffffffffffffffffffffffffffffffff168273ffffffffffffffffffffffffffffffffffffffff167f8c5be1e5ebec7d5bd14f71427d1e84f3dd0314c0f7b2291e5b200ac8c7c3b92560405160405180910390a45b505b836004600085815260200190815260200160002060006101000a81548173ffffffffffffffffffffffffffffffffffffffff021916908373ffffffffffffffffffffffffffffffffffffffff16021790555050505050565b6117c4838383611b26565b61187857600073ffffffffffffffffffffffffffffffffffffffff168373ffffffffffffffffffffffffffffffffffffffff160361183957806040517f7e273289000000000000000000000000000000000000000000000000000000008152600401611830919061212d565b60405180910390fd5b81816040517f177e802f00000000000000000000000000000000000000000000000000000000815260040161186f929190612a20565b60405180910390fd5b505050565b60606000600161188c84611be7565b01905060008167ffffffffffffffff8111156118ab576118aa611f8d565b5b6040519080825280601f01601f1916602001820160405280156118dd5781602001600182028036833780820191505090505b509050600082602083010190505b600115611940578080600190039150507f3031323334353637383961626364656600000000000000000000000000000000600a86061a8153600a858161193457611933612a49565b5b049450600085036118eb575b819350505050919050565b60007f80ac58cd000000000000000000000000000000000000000000000000000000007bffffffffffffffffffffffffffffffffffffffffffffffffffffffff1916827bffffffffffffffffffffffffffffffffffffffffffffffffffffffff19161480611a1657507f5b5e139f000000000000000000000000000000000000000000000000000000007bffffffffffffffffffffffffffffffffffffffffffffffffffffffff1916827bffffffffffffffffffffffffffffffffffffffffffffffffffffffff1916145b80611a265750611a2582611d3a565b5b9050919050565b600073ffffffffffffffffffffffffffffffffffffffff168273ffffffffffffffffffffffffffffffffffffffff1603611a9f5760006040517f64a0ae92000000000000000000000000000000000000000000000000000000008152600401611a9691906121b0565b60405180910390fd5b6000611aad83836000610d42565b9050600073ffffffffffffffffffffffffffffffffffffffff168173ffffffffffffffffffffffffffffffffffffffff1614611b215760006040517f73c6ac6e000000000000000000000000000000000000000000000000000000008152600401611b1891906121b0565b60405180910390fd5b505050565b60008073ffffffffffffffffffffffffffffffffffffffff168373ffffffffffffffffffffffffffffffffffffffff1614158015611bde57508273ffffffffffffffffffffffffffffffffffffffff168473ffffffffffffffffffffffffffffffffffffffff161480611b9f5750611b9e8484610ac7565b5b80611bdd57508273ffffffffffffffffffffffffffffffffffffffff16611bc583610ceb565b73ffffffffffffffffffffffffffffffffffffffff16145b5b90509392505050565b600080600090507a184f03e93ff9f4daa797ed6e38ed64bf6a1f0100000000000000008310611c45577a184f03e93ff9f4daa797ed6e38ed64bf6a1f0100000000000000008381611c3b57611c3a612a49565b5b0492506040810190505b6d04ee2d6d415b85acef81000000008310611c82576d04ee2d6d415b85acef81000000008381611c7857611c77612a49565b5b0492506020810190505b662386f26fc100008310611cb157662386f26fc100008381611ca757611ca6612a49565b5b0492506010810190505b6305f5e1008310611cda576305f5e1008381611cd057611ccf612a49565b5b0492506008810190505b6127108310611cff576127108381611cf557611cf4612a49565b5b0492506004810190505b60648310611d225760648381611d1857611d17612a49565b5b0492506002810190505b600a8310611d31576001810190505b80915050919050565b60007f01ffc9a7000000000000000000000000000000000000000000000000000000007bffffffffffffffffffffffffffffffffffffffffffffffffffffffff1916827bffffffffffffffffffffffffffffffffffffffffffffffffffffffff1916149050919050565b6000604051905090565b600080fd5b600080fd5b60007fffffffff0000000000000000000000000000000000000000000000000000000082169050919050565b611ded81611db8565b8114611df857600080fd5b50565b600081359050611e0a81611de4565b92915050565b600060208284031215611e2657611e25611dae565b5b6000611e3484828501611dfb565b91505092915050565b60008115159050919050565b611e5281611e3d565b82525050565b6000602082019050611e6d6000830184611e49565b92915050565b600081519050919050565b600082825260208201905092915050565b60005b83811015611ead578082015181840152602081019050611e92565b60008484015250505050565b6000601f19601f8301169050919050565b6000611ed582611e73565b611edf8185611e7e565b9350611eef818560208601611e8f565b611ef881611eb9565b840191505092915050565b60006020820190508181036000830152611f1d8184611eca565b905092915050565b600073ffffffffffffffffffffffffffffffffffffffff82169050919050565b6000611f5082611f25565b9050919050565b611f6081611f45565b8114611f6b57600080fd5b50565b600081359050611f7d81611f57565b92915050565b600080fd5b600080fd5b7f4e487b7100000000000000000000000000000000000000000000000000000000600052604160045260246000fd5b611fc582611eb9565b810181811067ffffffffffffffff82111715611fe457611fe3611f8d565b5b80604052505050565b6000611ff7611da4565b90506120038282611fbc565b919050565b600067ffffffffffffffff82111561202357612022611f8d565b5b61202c82611eb9565b9050602081019050919050565b82818337600083830152505050565b600061205b61205684612008565b611fed565b90508281526020810184848401111561207757612076611f88565b5b612082848285612039565b509392505050565b600082601f83011261209f5761209e611f83565b5b81356120af848260208601612048565b91505092915050565b600080604083850312156120cf576120ce611dae565b5b60006120dd85828601611f6e565b925050602083013567ffffffffffffffff8111156120fe576120fd611db3565b5b61210a8582860161208a565b9150509250929050565b6000819050919050565b61212781612114565b82525050565b6000602082019050612142600083018461211e565b92915050565b61215181612114565b811461215c57600080fd5b50565b60008135905061216e81612148565b92915050565b60006020828403121561218a57612189611dae565b5b60006121988482850161215f565b91505092915050565b6121aa81611f45565b82525050565b60006020820190506121c560008301846121a1565b92915050565b600080604083850312156121e2576121e1611dae565b5b60006121f085828601611f6e565b92505060206122018582860161215f565b9150509250929050565b60008060006060848603121561222457612223611dae565b5b600061223286828701611f6e565b935050602061224386828701611f6e565b92505060406122548682870161215f565b9150509250925092565b6000819050919050565b6122718161225e565b811461227c57600080fd5b50565b60008135905061228e81612268565b92915050565b6000602082840312156122aa576122a9611dae565b5b60006122b88482850161227f565b91505092915050565b6122ca8161225e565b82525050565b60006020820190506122e560008301846122c1565b92915050565b6000806040838503121561230257612301611dae565b5b60006123108582860161227f565b925050602061232185828601611f6e565b9150509250929050565b60006020828403121561234157612340611dae565b5b600061234f84828501611f6e565b91505092915050565b61236181611e3d565b811461236c57600080fd5b50565b60008135905061237e81612358565b92915050565b6000806040838503121561239b5761239a611dae565b5b60006123a985828601611f6e565b92505060206123ba8582860161236f565b9150509250929050565b600067ffffffffffffffff8211156123df576123de611f8d565b5b6123e882611eb9565b9050602081019050919050565b6000612408612403846123c4565b611fed565b90508281526020810184848401111561242457612423611f88565b5b61242f848285612039565b509392505050565b600082601f83011261244c5761244b611f83565b5b813561245c8482602086016123f5565b91505092915050565b6000806000806080858703121561247f5761247e611dae565b5b600061248d87828801611f6e565b945050602061249e87828801611f6e565b93505060406124af8782880161215f565b925050606085013567ffffffffffffffff8111156124d0576124cf611db3565b5b6124dc87828801612437565b91505092959194509250565b600080604083850312156124ff576124fe611dae565b5b600061250d85828601611f6e565b925050602061251e85828601611f6e565b9150509250929050565b7f4e487b7100000000000000000000000000000000000000000000000000000000600052602260045260246000fd5b6000600282049050600182168061256f57607f821691505b60208210810361258257612581612528565b5b50919050565b7f4e487b7100000000000000000000000000000000000000000000000000000000600052601160045260246000fd5b60006125c282612114565b91507fffffffffffffffffffffffffffffffffffffffffffffffffffffffffffffffff82036125f4576125f3612588565b5b600182019050919050565b600060608201905061261460008301866121a1565b612621602083018561211e565b61262e60408301846121a1565b949350505050565b600081905092915050565b600061264c82611e73565b6126568185612636565b9350612666818560208601611e8f565b80840191505092915050565b600061267e8285612641565b915061268a8284612641565b91508190509392505050565b60008190508160005260206000209050919050565b60006020601f8301049050919050565b600082821b905092915050565b6000600883026126f87fffffffffffffffffffffffffffffffffffffffffffffffffffffffffffffffff826126bb565b61270286836126bb565b95508019841693508086168417925050509392505050565b6000819050919050565b600061273f61273a61273584612114565b61271a565b612114565b9050919050565b6000819050919050565b61275983612724565b61276d61276582612746565b8484546126c8565b825550505050565b600090565b612782612775565b61278d818484612750565b505050565b5b818110156127b1576127a660008261277a565b600181019050612793565b5050565b601f8211156127f6576127c781612696565b6127d0846126ab565b810160208510156127df578190505b6127f36127eb856126ab565b830182612792565b50505b505050565b600082821c905092915050565b6000612819600019846008026127fb565b1980831691505092915050565b60006128328383612808565b9150826002028217905092915050565b61284b82611e73565b67ffffffffffffffff81111561286457612863611f8d565b5b61286e8254612557565b6128798282856127b5565b600060209050601f8311600181146128ac576000841561289a578287015190505b6128a48582612826565b86555061290c565b601f1984166128ba86612696565b60005b828110156128e2578489015182556001820191506020850194506020810190506128bd565b868310156128ff57848901516128fb601f891682612808565b8355505b6001600288020188555050505b505050505050565b600081519050919050565b600082825260208201905092915050565b600061293b82612914565b612945818561291f565b9350612955818560208601611e8f565b61295e81611eb9565b840191505092915050565b600060808201905061297e60008301876121a1565b61298b60208301866121a1565b612998604083018561211e565b81810360608301526129aa8184612930565b905095945050505050565b6000815190506129c481611de4565b92915050565b6000602082840312156129e0576129df611dae565b5b60006129ee848285016129b5565b91505092915050565b6000604082019050612a0c60008301856121a1565b612a1960208301846122c1565b9392505050565b6000604082019050612a3560008301856121a1565b612a42602083018461211e565b9392505050565b7f4e487b7100000000000000000000000000000000000000000000000000000000600052601260045260246000fdfea2646970667358221220ba3359c40be5a371434d3cac41b8b8fd2bf5c1185a6829b1c341a8d4c1b99c5464736f6c63430008140033",
  "linkReferences": {},
  "deployedLinkReferences": {}
}