{
  "_format": "hh-sol-artifact-1",
  "contractName": "SportChain",
  "sourceName": "contracts/SportChain.sol",
  "abi": [
    {
      "inputs": [],
      "stateMutability": "nonpayable",
      "type": "constructor"
    },
    {
      "anonymous": false,
      "inputs": [
        {
          "indexed": false,
          "internalType": "bytes32",
          "name": "hash",
          "type": "bytes32"
        }
      ],
      "name": "EventHashAnchored",
      "type": "event"
    },
    {
      "anonymous": false,
      "inputs": [
        {
          "indexed": false,
          "internalType": "address",
          "name": "organizer",
          "type": "address"
        },
        {
          "indexed": false,
          "internalType": "bytes32",
          "name": "organizerHash",
          "type": "bytes32"
        }
      ],
      "name": "OrganizerVerified",
      "type": "event"
    },
    {
      "inputs": [
        {
          "internalType": "bytes32",
          "name": "eventHash",
          "type": "bytes32"
        }
      ],
      "name": "anchorEventHash",
      "outputs": [],
      "stateMutability": "nonpayable",
      "type": "function"
    },
    {
      "inputs": [
        {
          "internalType": "bytes32",
          "name": "",
          "type": "bytes32"
        }
      ],
      "name": "eventHashes",
      "outputs": [
        {
          "internalType": "bytes32",
          "name": "hash",
          "type": "bytes32"
        },
        {
          "internalType": "uint256",
          "name": "createdAt",
          "type": "uint256"
        }
      ],
      "stateMutability": "view",
      "type": "function"
    },
    {
      "inputs": [
        {
          "internalType": "address",
          "name": "organizer",
          "type": "address"
        }
      ],
      "name": "getOrganizerHash",
      "outputs": [
        {
          "internalType": "bytes32",
          "name": "",
          "type": "bytes32"
        }
      ],
      "stateMutability": "view",
      "type": "function"
    },
    {
      "inputs": [
        {
          "internalType": "address",
          "name": "organizer",
          "type": "address"
        }
      ],
      "name": "isOrganizerVerified",
      "outputs": [
        {
          "internalType": "bool",
          "name": "",
          "type": "bool"
        }
      ],
      "stateMutability": "view",
      "type": "function"
    },
    {
      "inputs": [
        {
          "internalType": "address",
          "name": "",
          "type": "address"
        }
      ],
      "name": "organizers",
      "outputs": [
        {
          "internalType": "bool",
          "name": "verified",
          "type": "bool"
        },
        {
          "internalType": "uint256",
          "name": "verifiedAt",
          "type": "uint256"
        },
        {
          "internalType": "bytes32",
          "name": "organizerHash",
          "type": "bytes32"
        }
      ],
      "stateMutability": "view",
      "type": "function"
    },
    {
      "inputs": [],
      "name": "owner",
      "outputs": [
        {
          "internalType": "address",
          "name": "",
          "type": "address"
        }
      ],
      "stateMutability": "view",
      "type": "function"
    },
    {
      "inputs": [
        {
          "internalType": "bytes32",
          "name": "eventHash",
          "type": "bytes32"
        }
      ],
      "name": "verifyEventHash",
      "outputs": [
        {
          "internalType": "bool",
          "name": "",
          "type": "bool"
        }
      ],
      "stateMutability": "view",
      "type": "function"
    },
    {
      "inputs": [
        {
          "internalType": "address",
          "name": "organizer",
          "type": "address"
        },
        {
          "internalType": "bytes32",
          "name": "organizerHash",
          "type": "bytes32"
        }
      ],
      "name": "verifyOrganizer",
      "outputs": [],
      "stateMutability": "nonpayable",
      "type": "function"
    }
  ],
  "bytecode": "0x608060405234801561001057600080fd5b50336000806101000a81548173ffffffffffffffffffffffffffffffffffffffff021916908373ffffffffffffffffffffffffffffffffffffffff16021790555061095a806100606000396000f3fe608060405234801561001057600080fd5b50600436106100885760003560e01c80639327b5781161005b5780639327b57814610129578063a70b692d1461015a578063afa0d7ad14610176578063fed0269c146101a657610088565b80630544c5b91461008d5780630bbf6a20146100bf5780636727750a146100db5780638da5cb5b1461010b575b600080fd5b6100a760048036038101906100a2919061063f565b6101d6565b6040516100b6939291906106b9565b60405180910390f35b6100d960048036038101906100d4919061071c565b61020d565b005b6100f560048036038101906100f0919061063f565b61036d565b6040516101029190610749565b60405180910390f35b6101136103b9565b6040516101209190610773565b60405180910390f35b610143600480360381019061013e919061071c565b6103dd565b60405161015192919061078e565b60405180910390f35b610174600480360381019061016f91906107b7565b610401565b005b610190600480360381019061018b919061071c565b610560565b60405161019d91906107f7565b60405180910390f35b6101c060048036038101906101bb919061063f565b610583565b6040516101cd91906107f7565b60405180910390f35b60016020528060005260406000206000915090508060000160009054906101000a900460ff16908060010154908060020154905083565b60008054906101000a900473ffffffffffffffffffffffffffffffffffffffff1673ffffffffffffffffffffffffffffffffffffffff163373ffffffffffffffffffffffffffffffffffffffff161461029b576040517f08c379a00000000000000000000000000000000000000000000000000000000081526004016102929061086f565b60405180910390fd5b60006002600083815260200190815260200160002060010154146102f4576040517f08c379a00000000000000000000000000000000000000000000000000000000081526004016102eb906108db565b60405180910390fd5b6040518060400160405280828152602001428152506002600083815260200190815260200160002060008201518160000155602082015181600101559050507f4d87ba02fe1fadef3ec0a0e884fb77c99122624ae165af59f44424ddaf90f14f816040516103629190610749565b60405180910390a150565b6000600160008373ffffffffffffffffffffffffffffffffffffffff1673ffffffffffffffffffffffffffffffffffffffff168152602001908152602001600020600201549050919050565b60008054906101000a900473ffffffffffffffffffffffffffffffffffffffff1681565b60026020528060005260406000206000915090508060000154908060010154905082565b60008054906101000a900473ffffffffffffffffffffffffffffffffffffffff1673ffffffffffffffffffffffffffffffffffffffff163373ffffffffffffffffffffffffffffffffffffffff161461048f576040517f08c379a00000000000000000000000000000000000000000000000000000000081526004016104869061086f565b60405180910390fd5b604051806060016040528060011515815260200142815260200182815250600160008473ffffffffffffffffffffffffffffffffffffffff1673ffffffffffffffffffffffffffffffffffffffff16815260200190815260200160002060008201518160000160006101000a81548160ff02191690831515021790555060208201518160010155604082015181600201559050507f7db8ef1b116bd6e65d6d1c70674c832eec70b7935ad6b138c46d649b3ee04f4b82826040516105549291906108fb565b60405180910390a15050565b600080600260008481526020019081526020016000206001015414159050919050565b6000600160008373ffffffffffffffffffffffffffffffffffffffff1673ffffffffffffffffffffffffffffffffffffffff16815260200190815260200160002060000160009054906101000a900460ff169050919050565b600080fd5b600073ffffffffffffffffffffffffffffffffffffffff82169050919050565b600061060c826105e1565b9050919050565b61061c81610601565b811461062757600080fd5b50565b60008135905061063981610613565b92915050565b600060208284031215610655576106546105dc565b5b60006106638482850161062a565b91505092915050565b60008115159050919050565b6106818161066c565b82525050565b6000819050919050565b61069a81610687565b82525050565b6000819050919050565b6106b3816106a0565b82525050565b60006060820190506106ce6000830186610678565b6106db6020830185610691565b6106e860408301846106aa565b949350505050565b6106f9816106a0565b811461070457600080fd5b50565b600081359050610716816106f0565b92915050565b600060208284031215610732576107316105dc565b5b600061074084828501610707565b91505092915050565b600060208201905061075e60008301846106aa565b92915050565b61076d81610601565b82525050565b60006020820190506107886000830184610764565b92915050565b60006040820190506107a360008301856106aa565b6107b06020830184610691565b9392505050565b600080604083850312156107ce576107cd6105dc565b5b60006107dc8582860161062a565b92505060206107ed85828601610707565b9150509250929050565b600060208201905061080c6000830184610678565b92915050565b600082825260208201905092915050565b7f4e6f7420636f6e7472616374206f776e65720000000000000000000000000000600082015250565b6000610859601283610812565b915061086482610823565b602082019050919050565b600060208201905081810360008301526108888161084c565b9050919050565b7f4861736820616c726561647920616e63686f7265640000000000000000000000600082015250565b60006108c5601583610812565b91506108d08261088f565b602082019050919050565b600060208201905081810360008301526108f4816108b8565b9050919050565b60006040820190506109106000830185610764565b61091d60208301846106aa565b939250505056fea264697066735822122025ffbad8a2a42836dde76b60786469afebafb3b9be644f3120bb5b5f7abb1a6864736f6c63430008140033",
  "linkReferences": {},
  "deployedLinkReferences": {}
}